:1000000012C02CC02BC02AC029C028C027C026C0BF
:1000100007C3E3C223C022C021C020C01FC01EC02E
:100020001DC01CC01BC011241FBECFE5D4E0DEBF25
:10003000CDBF10E0A0E6B0E0EEEFF7E002C0059023
:100040000D92AC3DB107D9F722E0ACEDB0E001C0B4
:100050001D92A737B207E1F7B2D2CFC3D1CF89B78C
:10006000816089BF83B7836083BF089589B7846047
:1000700089BF88EC90E097BD86BD8CE090E09BBD89
:100080008ABD8FB580688FBD8FB582608FBD8EB5FC
:1000900088618EBD8EB581608EBD089587B3826004
:1000A00087BB84B38F6084BB8FEF81BB84B38F7CAD
:1000B00084BB85B3806385BB089585B38F6085BBA2
:1000C0008091D2008230D9F018F4813031F04EC0E6
:1000D000833039F18430B9F149C0E0917602F0E023
:1000E000E853FF4F808182BB80917202813019F406
:1000F00082B38F7782BB85B3877F85BB37C0E091A2
:100100007502F0E0E853FF4F808182BB809172025C
:10011000823019F482B38F7782BB85B38B7F85BB26
:1001200025C0E0917402F0E0E853FF4F808182BB6C
:1001300080917202833019F482B38F7782BB85B3CA
:100140008D7F85BB13C0E0917302EA3079F0F0E057
:10015000E853FF4F808182BB80917202843019F492
:1001600082B38F7782BB85B38E7F85BB8091D200AF
:10017000843021F481E08093D20008958F5F8093D2
:10018000D2000895CF93DF93AC01FB019C01ADEC4D
:10019000BCEC17D3969587959695879596958795F8
:1001A0009C01220F331F880F991F880F991F880FFA
:1001B000991F820F931F9A01281B390B20937602F7
:1001C0009A01FFD2EC01D695C795D695C795D695DD
:1001D000C7959E01F6D296958795969587959695A3
:1001E00087959C01220F331F880F991F880F991F35
:1001F000880F991F820F931F9E01281B390B209394
:1002000075029A013695279536952795ABE7B4E1A7
:10021000D8D2EC01D695C7959E01ADECBCECD1D2FD
:100220009695879596958795969587959C01220F2B
:10023000331F880F991F880F991F880F991F820FEE
:10024000931F9E01281B390B20937402483E33E014
:10025000530740F4E83E83E0F80721F08AE08093FA
:1002600073022BC09A0136952795369527953695BA
:100270002795A5ECB0E2A5D2AC01529542954F70FE
:1002800045275F7045279A01ADECBCEC9AD2969554
:10029000879596958795969587959C01220F331F94
:1002A000880F991F880F991F880F991F820F931F1E
:1002B0009A01281B390B20937302E130F10519F4E0
:1002C0001092720214C0EA30F10521F482E08093AA
:1002D00072020DC0E436F10521F483E080937202CE
:1002E00006C0E83EF34019F484E080937202DF9187
:1002F000CF910895EF92FF920F931F93CF93DF93C7
:10030000AB019C01ADECBCEC5CD2FC01F695E79531
:10031000F695E795F695E795DA0120E035E34CE0B0
:1003200050E05BD249EC4E9F90014F9F300D11245D
:1003300040E050E02AD2E22EF32E042F152F209316
:100340006000309361004093620050936300C0E00E
:10035000D0E0C436D105C4F4DE012E2D3F2D402F50
:10036000512F45D224E630E040E050E0ECD1FE01D0
:10037000EE0FFF1FEE0FFF1FEE51FF4F2083318363
:10038000428353832196E5CFDF91CF911F910F9147
:10039000FF90EF9008956091D3007091D400809108
:1003A000D5009091D600EEDE6091D3007091D4001C
:1003B0008091D5009091D6009DDF08958091D50061
:1003C0009091D600883E23E0920730F40A969093ED
:1003D000D6008093D500DFDF08958091D5009091FD
:1003E000D6008536910530F00A979093D600809319
:1003F000D500D1DF08958091D7009091D8009093D7
:10040000D6008093D500C7DF0895B39904C0B49B8C
:1004100004C080E003C080E001C081E0811107C01A
:10042000B39B08C0B49909C02AE030E008C028EEA8
:1004300033E005C024E630E002C021E030E0609106
:10044000D3007091D40026173707B1F162177307F4
:1004500070F4C90164D18091D5009091D600689F55
:10046000A001699F500D789F500D11240DC040913F
:10047000D5005091D600249FC001259F900D349F38
:10048000900D11244CD1AB018091D7009091D800F0
:100490004817590740F06091D9007091DA0064174D
:1004A000750708F0CA019093D6008093D500309369
:1004B000D4002093D3006FDF0895CF93DF93A5DF9F
:1004C0009D9937C083ED90E30197F1F700C00000DC
:1004D00030E080E090E09D9905C08931910524F0DD
:1004E00020E003C020E001C021E0222361F001965A
:1004F0008931910509F431E0E3EDF0E33197F1F74B
:1005000000C00000E8CF332391F0C0E0D0E09D9917
:1005100010C02196CE0183709927892B09F45DDFE5
:1005200083ED90E30197F1F700C00000F0CF9D99B3
:1005300054DF9C9937C0E3EDF0E33197F1F700C049
:10054000000030E080E090E09C9905C08931910581
:1005500024F020E003C020E001C021E0222361F06C
:1005600001968931910509F431E0E3EDF0E331972B
:10057000F1F700C00000E8CF332391F0C0E0D0E0F5
:100580009C9910C02196CE0183709927892B09F47C
:1005900015DF83ED90E30197F1F700C00000F0CF85
:1005A0009C990CDFB09908C0E3EDF0E33197F1F7C7
:1005B00000C00000B09B1FDFDF91CF9108956EDD7A
:1005C00024DFE9DE4CDD52DD789477DF87EA91E6BF
:1005D0000197F1F700C00000F8CF1F920F920FB6FD
:1005E0000F9211242F933F934F935F936F937F93B9
:1005F0008F939F93AF93BF93EF93FF935EDDFF9134
:10060000EF91BF91AF919F918F917F916F915F918A
:100610004F913F912F910F900FBE0F901F90189503
:100620001F920F920FB60F921124CF92DF92EF928A
:10063000FF922F933F934F935F936F937F938F938B
:100640009F93AF93BF93EF93FF938091DE009091C0
:10065000DF00A091E000B091E1000196A11DB11D65
:100660008093DE009093DF00A093E000B093E10060
:100670004091600050916100609162007091630050
:1006800084179507A607B70750F01092DE00109266
:10069000DF001092E0001092E1001092DC008091E7
:1006A000DC008F5F853608F083E6282F30E0F90103
:1006B000EE0FFF1FEE0FFF1FEE51FF4FC080D180E6
:1006C000E280F3804091DE005091DF006091E00015
:1006D0007091E1004C155D056E057F0558F0809323
:1006E000DC00F901EC59FF4F80818093DD0090E040
:1006F0009BBD8ABDFF91EF91BF91AF919F918F916B
:100700007F916F915F914F913F912F91FF90EF906B
:10071000DF90CF900F900FBE0F901F901895AA1BDF
:10072000BB1B51E107C0AA1FBB1FA617B70710F0DC
:10073000A61BB70B881F991F5A95A9F7809590950E
:10074000BC01CD010895A1E21A2EAA1BBB1BFD011D
:100750000DC0AA1FBB1FEE1FFF1FA217B307E407A0
:10076000F50720F0A21BB30BE40BF50B661F771FF8
:10077000881F991F1A9469F76095709580959095D8
:100780009B01AC01BD01CF010895052E97FB16F426
:1007900000940FD057FD05D0D6DF07FC02D046F4F9
:1007A00008C050954095309521953F4F4F4F5F4F72
:1007B000089590958095709561957F4F8F4F9F4FCD
:1007C0000895A29FB001B39FC001A39F01D0B29F23
:1007D000700D811D1124911D0895F3DFA59F900DCB
:1007E000B49F900DA49F800D911D11240895B7FF13
:0E07F000F4CFF3DF821B930B0895F894FFCF34
:1007FE006400000061666B6F74797E83878B9093C3
:10080E00979B9EA1A4A7A9ABADAEAFB0B0B1B0B04F
:10081E00AFAEADABA9A7A4A19E9B9793908B8783F8
:10082E007E79746F6B66615B56524D48433E3A3625
:10083E00312E2A2623201D1A1816141312111111E7
:10084E00111112131416181A1D2023262A2E3136B2
:10085E003A3E43484D52565B849FC88993A1A08F60
:0C086E00808101010064006400E80300C8
:00000001FF
