S01B00006672657175656E63795F67656E657261746F722E7372656311
S113000012C02CC02BC02AC029C028C027C026C0BB
S113001025C048C323C022C021C020C01FC01EC0A9
S11300201DC01CC01BC011241FBECFE5D4E0DEBF21
S1130030CDBF10E0A0E6B0E0E4E5F7E002C0059033
S11300400D92A437B107D9F720E0A4E7B0E001C0CE
S11300501D92A937B207E1F717D37AC3D1CF89B775
S1130060816089BF83B7836083BF08958FEF90E079
S11300709BBD8ABD8FB580648FBD8FB583608FBDF6
S11300808EB580618EBD8EB582608EBD089587B3B6
S1130090826087BB84B38F6084BB8FEF81BB84B3E2
S11300A08F7C84BB85B3806385BB089585B38F60E3
S11300B085BB80916A008230D9F018F4813031F028
S11300C04EC0833039F18430B9F149C0E0917800F1
S11300D0F0E0E05AFF4F808182BB80917400813050
S11300E019F482B38F7782BB85B3877F85BB37C012
S11300F0E0917700F0E0E05AFF4F808182BB80916D
S11301007400823019F482B38F7782BB85B38B7FFE
S113011085BB25C0E0917600F0E0E05AFF4F808176
S113012082BB80917400833019F482B38F7782BBD1
S113013085B38D7F85BB13C0E0917500EA3079F0FB
S1130140F0E0E05AFF4F808182BB809174008430DC
S113015019F482B38F7782BB85B38E7F85BB809180
S11301606A00843021F481E080936A0008958F5FEF
S113017080936A000895CF93DF93AC01FB019C0147
S1130180ADECBCECD9D296958795969587959695C6
S113019087959C01220F331F880F991F880F991F81
S11301A0880F991F820F931F9A01281B390B2093E4
S11301B078009A01C1D2EC01D695C795D695C7951A
S11301C0D695C7959E01B8D29695879596958795AD
S11301D0969587959C01220F331F880F991F880FCE
S11301E0991F880F991F820F931F9E01281B390B9B
S11301F0209377009A013695279536952795ABE796
S1130200B4E19AD2EC01D695C7959E01ADECBCEC55
S113021093D29695879596958795969587959C0103
S1130220220F331F880F991F880F991F880F991F5A
S1130230820F931F9E01281B390B20937600483EA2
S113024033E0530740F4E83E83E0F80721F08AE006
S1130250809375002BC09A0136952795369527957E
S113026036952795A5ECB0E267D2AC01529542953C
S11302704F7045275F7045279A01ADECBCEC5CD20A
S11302809695879596958795969587959C01220FC7
S1130290331F880F991F880F991F880F991F820F8A
S11302A0931F9A01281B390B20937500E130F10547
S11302B019F41092740014C0EA30F10521F482E0BC
S11302C0809374000DC0E436F10521F483E080933B
S11302D0740006C0E83EF34019F484E0809374008F
S11302E0DF91CF9108952EB5287F2EBD6130710521
S11302F049F59C01220F331F880F991F880F991FFE
S1130300880F991F280F391F3695279536952795FD
S1130310ABE7B4E111D2BC017695679580E29EE427
S1130320E4D1CB01880F991F660F771F660F771FE3
S1130330660F771F680F791F7BBD6ABD8EB581601C
S11303408EBD08956A30710549F59C01220F331F53
S1130350880F991F880F991F880F991F280F391F1D
S11303603695279536952795ABE7B4E1E5D1BC01E1
S11303707695679588EA91E6B8D1CB01880F991FE5
S1130380660F771F660F771F660F771F680F791F39
S11303907BBD6ABD8EB582608EBD089564367105DD
S11303A049F59C01220F331F880F991F880F991F4D
S11303B0880F991F280F391F36952795369527954D
S11303C0ABE7B4E1B9D1BC017695679582E19AE7D0
S11303D08CD1CB01880F991F660F771F660F771F8B
S11303E0660F771F680F791F7BBD6ABD8EB583606A
S11303F08EBD0895683E734041F59C01220F331F62
S1130400880F991F880F991F880F991F280F391F6C
S11304103695279536952795ABE7B4E18DD1BC0188
S1130420769567958BE49CE460D1CB01880F991F86
S1130430660F771F660F771F660F771F680F791F88
S11304407BBD6ABD8EB585608EBD089560916B00DD
S113045070916C0080916D0090916E008CDE6091C3
S11304606B0070916C0080916D0090916E003BDF89
S1130470089580916D0090916E00883E23E092076C
S113048030F40A9690936E0080936D00DFDF089538
S113049080916D0090916E008536910530F00A9739
S11304A090936E0080936D00D1DF089580916F006A
S11304B09091700090936E0080936D00C7DF089553
S11304C0B39904C0B49B04C080E003C080E001C0C1
S11304D081E0811107C0B39B08C0B49909C02AE028
S11304E030E008C028EE33E005C024E630E002C066
S11304F021E030E060916B0070916C0026173707A3
S1130500B1F16217730770F4C901EFD080916D00E7
S113051090916E00689FA001699F500D789F500DC7
S113052011240DC040916D0050916E00249FC001B4
S1130530259F900D349F900D1124D7D0AB0180914D
S11305406F00909170004817590740F06091710056
S1130550709172006417750708F0CA0190936E00D9
S113056080936D0030936C0020936B006FDF0895CF
S1130570CF93DF93A5DF9D9938C083ED90E3019776
S1130580F1F700C0000030E080E090E09D9905C0E4
S11305908436910524F020E003C020E001C021E06E
S11305A0222361F001968436910509F431E0E3EDEC
S11305B0F0E33197F1F700C00000E8CF332399F05E
S11305C0C0E0D0E09D9911C02196CE016AE070E0B0
S11305D0A0D0892B09F45CDF83ED90E30197F1F758
S11305E000C00000EFCF9D9953DF9C9938C0E3ED24
S11305F0F0E33197F1F700C0000030E080E090E0D4
S11306009C9905C08436910524F020E003C020E0C5
S113061001C021E0222361F001968436910509F49A
S113062031E0E3EDF0E33197F1F700C00000E8CFEB
S1130630332399F0C0E0D0E09C9911C02196CE01FB
S11306406AE070E066D0892B09F413DF83ED90E350
S11306500197F1F700C00000EFCF9C990ADFB09931
S113066010C0E3EDF0E33197F1F700C00000B0995A
S113067007C083ED90E30197F1F700C00000F7CFC6
S113068015DFDF91CF91089502DDE9DCEFDC78948A
S113069017DFDCDE6DDF87EA91E60197F1F700C032
S11306A00000F8CF1F920F920FB60F9211242F93D0
S11306B03F934F935F936F937F938F939F93AF93E6
S11306C0BF93EF93FF93F2DCFF91EF91BF91AF9152
S11306D09F918F917F916F915F914F913F912F9156
S11306E00F900FBE0F901F901895AA1BBB1B51E1D2
S11306F007C0AA1FBB1FA617B70710F0A61BB70B8E
S1130700881F991F5A95A9F780959095BC01CD0132
S1130710089597FB072E16F4009406D077FD08D0B1
S1130720E4DF07FC05D03EF4909581959F4F089532
S1130730709561957F4F0895A29FB001B39FC0014A
S1130740A39F01D0B29F700D811D1124911D0895A6
S1070750F894FFCF47
S1130754849FC88993A1A08F8081010100640064EF
S107076400E80300A2
S9030000FC
