:1000000012C02CC02BC0C7C029C028C027C026C022
:1000100025C09EC023C022C021C020C01FC01EC05A
:100020001DC01CC01BC011241FBECFE5D4E0DEBF25
:10003000CDBF10E0A0E6B0E0EEEAF1E002C005902E
:100040000D92A837B107D9F720E0A8E7B0E001C0CA
:100050001D92AE37B207E1F712D0A7C0D1CF89B752
:10006000816089BF83B7836083BF089587B382604F
:1000700087BB84B38F6084BB8FEF81BB0895F6DFAD
:10008000EEDF789487EA91E60197F1F700C000006F
:10009000F9CF85B38F6085BB809174009091750016
:1000A00082309105C1F018F4019739F03DC08330DA
:1000B0009105F9F0049759F137C0E0917C00F09177
:1000C0007D00EE0FFF1FE05AFF4F808182BB85B39A
:1000D000877F85BB29C0E0917A00F0917B00EE0F0D
:1000E000FF1FE05AFF4F808182BB85B38B7F85BBAA
:1000F0001BC0E0917800F0917900EE0FFF1FE05AED
:10010000FF4F808182BB85B38D7F85BB0DC0E091A1
:100110007600F0917700EE0FFF1FE05AFF4F8081CD
:1001200082BB85B38E7F85BB8091740090917500F2
:100130008430910539F481E090E0909375008093CC
:10014000740008950196909375008093740008954B
:100150001F920F920FB60F9211242F933F934F933C
:100160005F936F937F938F939F93AF93BF93EF931F
:10017000FF938FDFFF91EF91BF91AF919F918F918F
:100180007F916F915F914F913F912F910F900FBE93
:100190000F901F9018951F920F920FB60F92112477
:0E01A0000F900FBE0F901F901895F894FFCF90
:1001AE0084009F00C80089009300A100A0008F006A
:0801BE0080008100010009002E
:00000001FF
