:1000000012C02CC02BC02AC029C028C027C026C0BF
:100010003CC318C323C022C021C020C01FC01EC0C3
:100020001DC01CC01BC011241FBECFE5D4E0DEBF25
:10003000CDBF11E0A0E6B0E0E8E9F8E002C005902D
:100040000D92A234B107D9F723E0A2E4B1E001C0D8
:100050001D92A93AB207E1F7E7D21CC4D1CF89B704
:10006000816089BF83B7836083BF089589B7846047
:1000700089BF88EC90E097BD86BD8CE090E09BBD89
:100080008ABD8FB580688FBD8FB582608FBD8EB5FC
:1000900088618EBD8EB581608EBD089587B3826004
:1000A00087BB84B38F6084BB8FEF81BB84B38F7CAD
:1000B00084BB85B3806385BB089585B38F6085BBA2
:1000C000809138018230D9F018F4813031F04EC07F
:1000D000833039F18430B9F149C0E091A803F0E0F0
:1000E000E25DFE4F808182BB8091A403813019F4D0
:1000F00082B38F7782BB85B3877F85BB37C0E091A2
:10010000A703F0E0E25DFE4F808182BB8091A403F3
:10011000823019F482B38F7782BB85B38B7F85BB26
:1001200025C0E091A603F0E0E25DFE4F808182BB36
:100130008091A403833019F482B38F7782BB85B397
:100140008D7F85BB13C0E091A503EA3079F0F0E024
:10015000E25DFE4F808182BB8091A403843019F45C
:1001600082B38F7782BB85B38E7F85BB8091380148
:10017000843021F481E08093380108958F5F80936B
:1001800038010895CF93DF93AC01FB019C01ADECE6
:10019000BCEC6AD3969587959695879596958795A5
:1001A0009C01220F331F880F991F880F991F880FFA
:1001B000991F820F931F9A01281B390B2093A803C4
:1001C0009A0152D3EC01D695C795D695C795D69589
:1001D000C7959E0149D3969587959695879596954F
:1001E00087959C01220F331F880F991F880F991F35
:1001F000880F991F820F931F9E01281B390B209394
:10020000A7039A013695279536952795ABE7B4E174
:100210002BD3EC01D695C7959E01ADECBCEC24D355
:100220009695879596958795969587959C01220F2B
:10023000331F880F991F880F991F880F991F820FEE
:10024000931F9E01281B390B2093A603483E33E0E1
:10025000530740F4E83E83E0F80721F08AE08093FA
:10026000A5032BC09A013695279536952795369587
:100270002795A5ECB0E2F8D2AC01529542954F70AB
:1002800045275F7045279A01ADECBCECEDD2969501
:10029000879596958795969587959C01220F331F94
:1002A000880F991F880F991F880F991F820F931F1E
:1002B0009A01281B390B2093A503E130F10519F4AD
:1002C0001092A40314C0EA30F10521F482E0809377
:1002D000A4030DC0E436F10521F483E08093A40368
:1002E00006C0E83EF34019F484E08093A403DF9154
:1002F000CF9108958F929F92AF92BF92FF920F93EA
:100300001F93CF93DF93EB019C01ADECBCECACD21F
:10031000FC01F695E795F695E795F695E795DE01EC
:1003200020E035E34CE050E0ABD249EC4E9F900129
:100330004F9F300D112440E050E07AD2822E932E50
:10034000A42EB52E20936200309363004093640086
:100350005093650088EC88169104A104B10418F448
:1003600020934B0103C088EC80934B01C83ED340DF
:1003700041F48AE090E09093610080936000F12C5A
:1003800007C081E090E09093610080936000F7CF18
:10039000C0914B01FC1650F50F2D10E0D801A501BE
:1003A00094016ED2D0E04091600050916100C49FF2
:1003B0009001C59F300DD49F300D112440E050E0D6
:1003C00015D2F801EE0FFF1FEC5EFD4F3183208345
:1003D00028EC209FC001219F900D1124BE01F2D175
:1003E000F801E45BFE4F6083F394D2CFDF91CF91AD
:1003F0001F910F91FF90BF90AF909F908F900895A5
:100400006091390170913A0180913B0190913C01DA
:10041000B9DE6091390170913A0180913B01909170
:100420003C0168DF089580913B0190913C01883E3A
:1004300023E0920730F40A9690933C0180933B01AD
:10044000DFDF089580913B0190913C018536910555
:1004500030F00A9790933C0180933B01D1DF0895DF
:1004600080913D0190913E0190933C0180933B012E
:10047000C7DF0895B39904C0B49B04C080E003C0F3
:1004800080E001C081E0811107C0B39B08C0B4992E
:1004900009C02AE030E008C028EE33E005C024E6B9
:1004A00030E002C021E030E06091390170913A0102
:1004B00026173707B1F16217730770F4C90182D1AB
:1004C00080913B0190913C01689FA001699F500D74
:1004D000789F500D11240DC040913B0150913C017B
:1004E000249FC001259F900D349F900D11246AD147
:1004F000AB0180913D0190913E014817590740F0B2
:1005000060913F01709140016417750708F0CA01BE
:1005100090933C0180933B0130933A012093390141
:100520006FDF0895CF93DF93A5DF9D9937C083EDEB
:1005300090E30197F1F700C0000030E080E090E028
:100540009D9905C08931910524F020E003C020E089
:1005500001C021E0222361F001968931910509F45F
:1005600031E0E3EDF0E33197F1F700C00000E8CFB0
:10057000332391F0C0E0D0E09D9910C02196CE01C8
:1005800083709927892B09F45DDF83ED90E3019750
:10059000F1F700C00000F0CF9D9954DF9C9937C05F
:1005A000E3EDF0E33197F1F700C0000030E080E0C8
:1005B00090E09C9905C08931910524F020E003C0AA
:1005C00020E001C021E0222361F0019689319105EC
:1005D00009F431E0E3EDF0E33197F1F700C00000FA
:1005E000E8CF332391F0C0E0D0E09C9910C0219671
:1005F000CE0183709927892B09F415DF83ED90E3F1
:100600000197F1F700C00000F0CF9C990CDFB09982
:1006100008C0E3EDF0E33197F1F700C00000B09BB4
:100620001FDFDF91CF91089539DD24DFE9DE17DD8B
:100630001DDD789477DF87EA91E60197F1F700C036
:100640000000F8CF1F920F920FB60F9211242F9334
:100650003F934F935F936F937F938F939F93AF934A
:10066000BF93EF93FF9329DDFF91EF91BF91AF917E
:100670009F918F917F916F915F914F913F912F91BA
:100680000F900FBE0F901F9018951F920F920FB6EC
:100690000F9211242F933F934F935F936F937F9308
:1006A0008F939F93AF93BF93EF93FF9380914601F6
:1006B00090914701A0914801B09149010196A11D77
:1006C000B11D8093460190934701A0934801B093D8
:1006D0004901409162005091630060916400709103
:1006E000650084179507A607B707B8F01092460172
:1006F00010924701109248011092490110924A014C
:10070000109245011092440110924301109242014F
:100710008091660090E09BBD8ABD2091440130919C
:10072000450180916000909161002817390781F59B
:1007300010924501109244012091420130914301F1
:100740002F5F3F4F309343012093420180914A0134
:100750008F5F90914B01891710F08FEF890F482F11
:1007600050E0FA01EE0FFF1FEC5EFD4F60817181DA
:100770002617370768F080934A01FA01E45BFE4FC1
:10078000E081F0E0EA59FF4F808190E09BBD8ABD97
:100790008091440190914501019690934501809389
:1007A0004401FF91EF91BF91AF919F918F917F9104
:1007B0006F915F914F913F912F910F900FBE0F90CE
:1007C0001F901895AA1BBB1B51E107C0AA1FBB1F96
:1007D000A617B70710F0A61BB70B881F991F5A95CD
:1007E000A9F780959095BC01CD010895A1E21A2E3C
:1007F000AA1BBB1BFD010DC0AA1FBB1FEE1FFF1FC5
:10080000A217B307E407F50720F0A21BB30BE40B14
:10081000F50B661F771F881F991F1A9469F760955B
:100820007095809590959B01AC01BD01CF01089515
:10083000052E97FB16F400940FD057FD05D0D6DF98
:1008400007FC02D046F408C050954095309521959C
:100850003F4F4F4F5F4F08959095809570956195EC
:100860007F4F8F4F9F4F0895A29FB001B39FC0014C
:10087000A39F01D0B29F700D811D1124911D089579
:10088000F3DFA59F900DB49F900DA49F800D911D47
:0808900011240895F894FFCF34
:10089800010064000000616366686B6D6F727477B5
:1008A800797C7E80838587898B8D909293959799A3
:1008B8009B9D9EA0A1A3A4A5A7A8A9AAABACADADDA
:1008C800AEAFAFB0B0B0B0B0B1B0B0B0B0B0AFAF25
:1008D800AEADADACABAAA9A8A7A5A4A3A1A09E9DA7
:1008E8009B9997959392908D8B89878583807E7C41
:1008F800797774726F6D6B686663615E5B59565485
:10090800524F4D4A484543413E3C3A383634312FE0
:100918002E2C2A2826242321201E1D1C1A191817BC
:10092800161514141312121111111111111111119C
:100938001111121213141415161718191A1C1D1E4A
:100948002021232426282A2C2E2F313436383A3CCD
:100958003E414345484A4D4F525456595B5E849F29
:10096800C88993A1A08F808101010064006400E818
:0209780003007A
:00000001FF
