:1000000012C02CC02BC02AC029C028C027C026C0BF
:100010002FC20BC223C022C021C020C01FC01EC0DF
:100020001DC01CC01BC011241FBECFE5D4E0DEBF25
:10003000CDBF11E0A0E6B0E0E4E0F6E002C005903C
:100040000D92A034B107D9F721E0A0E4B1E001C0DE
:100050001D92AA34B207E1F7DAD1D2C2D1CF89B763
:10006000816089BF83B7836083BF089589B7846047
:1000700089BF88EC90E097BD86BD8CE090E09BBD89
:100080008ABD8FB580688FBD8FB582608FBD8EB5FC
:1000900088618EBD8EB581608EBD0895B99A84B396
:1000A0008F6084BB8FEF81BB84B38F7C84BB85B3AF
:1000B000806385BB089585B38F6085BB80913601D1
:1000C0008230B9F018F4813031F03EC08330F9F05D
:1000D000843059F139C0E0914901F0E0E45DFE4F10
:1000E000808182BB80914501813009F49798AB985B
:1000F0002BC0E0914801F0E0E45DFE4F808182BBBF
:1001000080914501823009F49798AA981DC0E0912A
:100110004701F0E0E45DFE4F808182BB80914501A4
:10012000833009F49798A9980FC0E0914601EA300E
:1001300059F0F0E0E45DFE4F808182BB8091450183
:10014000843009F49798A89880913601843011F48E
:1001500081E001C08F5F809336010895CF93DF93D4
:10016000FC019B01CAE0D0E0BE01EBD180934901C4
:10017000CB01BE01E6D180934801CF0164E670E077
:10018000E0D1CB01BE01DDD180934701E83E83E0A1
:10019000F80730F4283E83E0380711F08AE008C001
:1001A000CF0168EE73E0CDD1CB016AE070E0C9D138
:1001B000809346012130310519F41092450110C099
:1001C0002A30310511F482E009C02436310511F4DA
:1001D00083E004C0283E334019F484E08093450155
:1001E000DF91CF910895609137017091380180912E
:1001F000390190913A01B2DF80E991E0A0E0B0E0EE
:100200008093600090936100A0936200B0936300BC
:1002100008958091390190913A01883E23E0920738
:1002200030F40A9690933A0180933901DCCF089517
:100230008091390190913A018536910530F00A9705
:1002400090933A0180933901CECF089580913B017C
:1002500090913C0190933A0180933901C4CFB399B6
:1002600005C0B49903C028EE33E006C0B39B40C07C
:10027000B49B3BC021E030E06091370170913801C0
:1002800026173707C1F1E0913901F0913A01621761
:10029000730750F4C90155D16E9FC0016F9F900D37
:1002A0007E9F900D112409C02E9FC0012F9F900D9D
:1002B0003E9F900D112445D1CB0140913B015091BF
:1002C0003C018417950740F060913D0170913E011B
:1002D0006817790708F0AC0150933A01409339014F
:1002E00030933801209337017ECF2AE030E0C4CF2D
:1002F00024E630E0C1CF08950F931F93CF93DF938F
:10030000AEDF9D991FC083ED90E30197F1F700C028
:10031000000020E080E090E09D9951C08436910576
:1003200009F040C04CC02196CE01B8011ED1892BE6
:1003300009F47EDF83ED90E30197F1F700C0000040
:100340009D9BF1CF9C991FC0E3EDF0E33197F1F74E
:1003500000C0000020E080E090E09C993BC0843623
:10036000910509F042C036C02196CE01B801FDD0FA
:10037000892B09F44EDF83ED90E30197F1F700C07C
:1003800000009C9BF1CFB0993DC0E3EDF0E33197C5
:10039000F1F700C00000B09935C0DF91CF911F91F7
:1003A0000F9154CF01968436910539F0E3EDF0E3D7
:1003B0003197F1F700C00000AFCF21E0F7CF211156
:1003C00004C09D9BBFCF34DFBDCFC0E0D0E00AE0CA
:1003D00010E0B6CF211104C09C9BD5CF1ADFD3CF3C
:1003E000C0E0D0E00AE010E0CCCF01968436910561
:1003F00039F0E3EDF0E33197F1F700C00000ADCF45
:1004000021E0F7CFDF91CF911F910F91089546DE44
:1004100026DFE9DE24DE2ADE78946EDF87EA91E6C5
:100420000197F1F700C00000F8CF1F920F920FB6AE
:100430000F9211242F933F934F935F936F937F936A
:100440008F939F93AF93BF93EF93FF9334DEFF910E
:10045000EF91BF91AF919F918F917F916F915F913C
:100460004F913F912F910F900FBE0F901F901895B5
:100470001F920F920FB60F921124CF92DF92EF923C
:10048000FF922F933F934F935F936F937F938F933D
:100490009F93AF93BF93EF93FF938091410190910E
:1004A0004201A0914301B09144010196A11DB11DEB
:1004B0008093410190934201A0934301B093440182
:1004C000C0906000D0906100E0906200F090630006
:1004D0008C159D05AE05BF0540F0109241011092AC
:1004E0004201109243011092440120914101309148
:1004F00042014091430150914401A8ECB0E06AD020
:10050000A701960145D0F901EC59FF4F80818093F6
:10051000400190E09BBD8ABDFF91EF91BF91AF91EB
:100520009F918F917F916F915F914F913F912F910B
:10053000FF90EF90DF90CF900F900FBE0F901F9025
:100540001895AA1BBB1B51E107C0AA1FBB1FA6170A
:10055000B70710F0A61BB70B881F991F5A95A9F76C
:1005600080959095BC01CD01089597FB072E16F458
:10057000009406D077FD08D0E4DF07FC05D03EF4F8
:10058000909581959F4F0895709561957F4F08953F
:10059000A1E21A2EAA1BBB1BFD010DC0AA1FBB1F87
:1005A000EE1FFF1FA217B307E407F50720F0A21BF9
:1005B000B30BE40BF50B661F771F881F991F1A9466
:1005C00069F760957095809590959B01AC01BD0190
:1005D000CF01089509D0A59F900DB49F900DA49FC1
:1005E000800D911D11240895A29FB001B39FC001F9
:1005F000A39F01D0B29F700D811D1124911D0895FC
:04060000F894FFCF9C
:1006040090010000616366686B6D6F727477797C2A
:100614007E80838587898B8D9092939597999B9DF6
:100624009EA0A1A3A4A5A7A8A9AAABACADADAEAF4B
:10063400AFB0B0B0B0B0B1B0B0B0B0B0AFAFAEADBD
:10064400ADACABAAA9A8A7A5A4A3A1A09E9D9B9964
:1006540097959392908D8B89878583807E7C79771B
:1006640074726F6D6B686663615E5B595654524F6A
:100674004D4A484543413E3C3A383634312F2E2CBE
:100684002A2826242321201E1D1C1A191817161582
:10069400141413121211111111111111111111113C
:1006A400121213141415161718191A1C1D1E2021C2
:1006B400232426282A2C2E2F313436383A3C3E4126
:1006C4004345484A4D4F525456595B5E849FC889EE
:1006D40093A1A08F808101010064006400E80300FD
:00000001FF
